:020000040800F2
:10000000008001200D8D00088D8600088F86000875
:10001000918600089386000895860008000000007D
:1000200000000000000000000000000097860008AB
:1000300099860008000000009B8600089D86000845
:100040005D8D00085D8D00085D8D00085D8D0008E8
:100050005D8D00085D8D00085D8D00085D8D0008D8
:100060005D8D00085D8D00085D8D00085D8D0008C8
:100070005D8D00085D8D00085D8D00085D8D0008B8
:10008000A58600085D8D00085D8D00080000000059
:100090000000000000000000000000005D8D00086E
:1000A0005D8D00085D8D00085D8D00085D8D000888
:1000B000B58600085D8D00085D8D00085D8D000827
:1000C0005D8D00085D8D00085D8D00085D8D000868
:1000D0005D8D00085D8D0008C586000800000000E9
:1000E0005D8D00085D8D00085D8D0008000000003A
:1000F0000000000000000000000000005D8D00080E
:10010000000000005D8D00085D8D00085D8D000819
:1001100000000000000000000000000000000000DF
:100120005D8D00085D8D00085D8D00085D8D000807
:100130005D8D0008000000000000000000000000CD
:100140000000000000000000000000005D8D0008BD
:100150005D8D00085D8D0008D58600085D8D000866
:100160005D8D00085D8D00080000000000000000AB
:10017000000000000000000000000000000000007F
:10018000000000005D8D000800000000000000007D
:040190005D8D000879
:1001A00010B5054C237833B9044B13B10448AFF3B1
:1001B00000800123237010BD000200200000000019
:1001C0001CE3000808B5034B1BB103490348AFF318
:1001D000008008BD00000000040200201CE30008AD
:1001E000034613F8012B002AFBD1181A0138704777
:1001F00001F0FF01102A2BDB10F0070F08D010F8D8
:10020000013B013A8B422DD010F0070F42B3F6D1DB
:10021000F0B441EA012141EA014122F007047FF0F4
:1002200000070023F0E80256083C85EA010586EA4B
:10023000010685FA47F5A3FA87F586FA47F6A5FA87
:1002400087F68EB9EED1F0BC01F0FF0102F0070293
:1002500032B110F8013B013A83EA010313B1F8D13E
:100260000020704701387047002D06BF354603381F
:10027000073815F0010F07D1013015F4807F02BF58
:10028000013015F4C03F0130F0BC0138704700BFA9
:1002900081F0004102E000BF83F0004330B54FEA37
:1002A00041044FEA430594EA050F08BF90EA020FA4
:1002B0001FBF54EA000C55EA020C7FEA645C7FEA37
:1002C000655C00F0E2804FEA5454D4EB5555B8BF5A
:1002D0006D420CDD2C4480EA020281EA030382EACB
:1002E000000083EA010180EA020281EA0303362D5D
:1002F00088BF30BD11F0004F4FEA01314FF4801C30
:100300004CEA113102D0404261EB410113F0004F41
:100310004FEA03334CEA133302D0524263EB4303F8
:1003200094EA050F00F0A780A4F10104D5F1200E96
:100330000DDB02FA0EFC22FA05F2801841F10001F1
:1003400003FA0EF2801843FA05F359410EE0A5F1C5
:1003500020050EF1200E012A03FA0EFC28BF4CF0F6
:10036000020C43FA05F3C01851EBE37101F00045AC
:1003700007D54FF0000EDCF1000C7EEB00006EEBB9
:100380000101B1F5801F1BD3B1F5001F0CD3490843
:100390005FEA30004FEA3C0C04F101044FEA44529A
:1003A00012F5800F80F09A80BCF1004F08BF5FEA21
:1003B000500C50F1000041EB045141EA050130BD01
:1003C0005FEA4C0C404141EB010111F4801FA4F1A4
:1003D0000104E9D191F0000F04BF01460020B1FAF9
:1003E00081F308BF2033A3F10B03B3F120020CDA31
:1003F0000C3208DD02F1140CC2F10C0201FA0CF00F
:1004000021FA02F10CE002F11402D8BFC2F1200C73
:1004100001FA02F120FA0CFCDCBF41EA0C01904029
:10042000E41AA2BF01EB0451294330BD6FEA040472
:100430001F3C1CDA0C340EDC04F11404C4F120025D
:1004400020FA04F001FA02F340EA030021FA04F36F
:1004500045EA030130BDC4F10C04C4F1200220FAC6
:1004600002F001FA04F340EA0300294630BD21FA04
:1004700004F0294630BD94F0000F83F4801306BFCA
:1004800081F480110134013D4EE77FEA645C18BFBE
:100490007FEA655C29D094EA050F08BF90EA020F55
:1004A00005D054EA000C04BF1946104630BD91EA4D
:1004B000030F1EBF0021002030BD5FEA545C05D150
:1004C0004000494128BF41F0004130BD14F580048F
:1004D0003CBF01F5801130BD01F0004545F0FE4103
:1004E00041F470014FF0000030BD7FEA645C1ABF38
:1004F000194610467FEA655C1CBF0B46024650EA6F
:10050000013406BF52EA033591EA030F41F400219A
:1005100030BD00BF90F0000F04BF0021704730B520
:100520004FF4806404F132044FF000054FF00001F5
:1005300050E700BF90F0000F04BF0021704730B5B6
:100540004FF4806404F1320410F0004548BF40428B
:100550004FF000013EE700BF42004FEAE2014FEAE0
:1005600031014FEA02701FBF12F07F4393F07F4FBB
:1005700081F06051704732F07F4208BF704793F0BE
:100580007F4F04BF41F40021704730B54FF46074D1
:1005900001F0004521F000411CE700BF50EA0102D4
:1005A00008BF704730B54FF000050AE050EA01027D
:1005B00008BF704730B511F0004502D5404261EBED
:1005C00041014FF4806404F132045FEA915C3FF42E
:1005D000D8AE4FF003025FEADC0C18BF03325FEACB
:1005E000DC0C18BF033202EBDC02C2F1200300FA7C
:1005F00003FC20FA02F001FA03FE40EA0E0021FAA1
:1006000002F11444BDE600BF70B54FF0FF0C4CF48E
:10061000E06C1CEA11541DBF1CEA135594EA0C0F40
:1006200095EA0C0F00F0DEF82C4481EA030621EA7B
:100630004C5123EA4C5350EA013518BF52EA0335B6
:1006400041F4801143F4801338D0A0FB02CE4FF068
:100650000005E1FB02E506F00042E0FB03E54FF098
:100660000006E1FB03569CF0000F18BF4EF0010E90
:10067000A4F1FF04B6F5007F64F5407404D25FEA8C
:100680004E0E6D4146EB060642EAC62141EA55513F
:100690004FEAC52040EA5E504FEACE2EB4F1FD0C81
:1006A00088BFBCF5E06F1ED8BEF1004F08BF5FEAFF
:1006B000500E50F1000041EB045170BD06F00046B1
:1006C00046EA010140EA020081EA0301B4EB5C045E
:1006D000C2BFD4EB0C0541EA045170BD41F4801156
:1006E0004FF0000E013C00F3AB8014F1360FDEBF7B
:1006F000002001F0004170BDC4F10004203C35DA57
:100700000C341BDC04F11404C4F1200500FA05F3D9
:1007100020FA04F001FA05F240EA020001F000427A
:1007200021F0004110EBD37021FA04F642EB0601F0
:100730005EEA430E08BF20EAD37070BDC4F10C041A
:10074000C4F1200500FA04F320FA05F001FA04F2DE
:1007500040EA020001F0004110EBD37041F10001CA
:100760005EEA430E08BF20EAD37070BDC4F12005D5
:1007700000FA05F24EEA020E20FA04F301FA05F23D
:1007800043EA020321FA04F001F0004121FA04F2E5
:1007900020EA020000EBD3705EEA430E08BF20EAB5
:1007A000D37070BD94F0000F0FD101F000464000EF
:1007B00041EB010111F4801F08BF013CF7D041EA71
:1007C000060195F0000F18BF704703F00046520075
:1007D00043EB030313F4801F08BF013DF7D043EA46
:1007E0000603704794EA0C0F0CEA135518BF95EAFC
:1007F0000C0F0CD050EA410618BF52EA4306D1D183
:1008000081EA030101F000414FF0000070BD50EAA1
:10081000410606BF1046194652EA430619D094EA2B
:100820000C0F02D150EA013613D195EA0C0F05D115
:1008300052EA03361CBF104619460AD181EA030169
:1008400001F0004141F0FE4141F470014FF0000021
:1008500070BD41F0FE4141F4780170BD70B54FF0BC
:10086000FF0C4CF4E06C1CEA11541DBF1CEA13553C
:1008700094EA0C0F95EA0C0F00F0A7F8A4EB05041E
:1008800081EA030E52EA03354FEA013100F0888015
:100890004FEA03334FF0805545EA131343EA1263DE
:1008A0004FEA022245EA111545EA10654FEA002693
:1008B0000EF000419D4208BF964244F1FD0404F54C
:1008C000407402D25B084FEA3202B61A65EB0305A8
:1008D0005B084FEA32024FF480104FF4002CB6EB65
:1008E000020E75EB030E22BFB61A754640EA0C00E5
:1008F0005B084FEA3202B6EB020E75EB030E22BF25
:10090000B61A754640EA5C005B084FEA3202B6EB65
:10091000020E75EB030E22BFB61A754640EA9C0024
:100920005B084FEA3202B6EB020E75EB030E22BFF4
:10093000B61A754640EADC0055EA060E18D04FEAB2
:10094000051545EA16754FEA06164FEAC30343EA52
:1009500052734FEAC2025FEA1C1CC0D111F4801F1F
:100960000BD141EA00014FF000004FF0004CB6E718
:1009700011F4801F04BF01430020B4F1FD0C88BFB7
:10098000BCF5E06F3FF6AFAEB5EB030C04BFB6EBC2
:10099000020C5FEA500C50F1000041EB045170BDB5
:1009A0000EF0004E4EEA113114EB5C04C2BFD4EBE2
:1009B0000C0541EA045170BD41F480114FF0000E66
:1009C000013C90E645EA060E8DE60CEA135594EAE2
:1009D0000C0F08BF95EA0C0F3FF43BAF94EA0C0FE5
:1009E0000AD150EA01347FF434AF95EA0C0F7FF45A
:1009F00025AF104619462CE795EA0C0F06D152EAAE
:100A000003353FF4FDAE1046194622E750EA410691
:100A100018BF52EA43067FF4C5AE50EA41047FF4A2
:100A20000DAF52EA43057FF4EBAE12E74FF0FF3C07
:100A300006E000BF4FF0010C02E000BF4FF0010CD8
:100A40004DF804CD4FEA410C7FEA6C5C4FEA430C51
:100A500018BF7FEA6C5C1BD001B050EA410C0CBFA0
:100A600052EA430C91EA030F02BF90EA020F002002
:100A7000704710F1000F91EA030F58BF994208BF69
:100A800090422CBFD8176FEAE37040F00100704726
:100A90004FEA410C7FEA6C5C02D150EA013C07D17D
:100AA0004FEA430C7FEA6C5CD6D152EA033CD3D0C8
:100AB0005DF8040B704700BF8446104662468C46C2
:100AC0001946634600E000BF01B5FFF7B7FF0028F5
:100AD00048BF10F1000F01BD4DF808EDFFF7F4FF1E
:100AE0000CBF012000205DF808FB00BF4DF808EDA9
:100AF000FFF7EAFF34BF012000205DF808FB00BFCC
:100B00004DF808EDFFF7E0FF94BF012000205DF8ED
:100B100008FB00BF4DF808EDFFF7CEFF94BF0120A2
:100B200000205DF808FB00BF4DF808EDFFF7C4FF9B
:100B300034BF012000205DF808FB00BF4FEA410CE4
:100B40007FEA6C5C02D150EA013C0AD14FEA430CC7
:100B50007FEA6C5C02D152EA033C02D14FF0000004
:100B600070474FF0010070474FEA410212F5001242
:100B700015D211D56FF47873B3EB625212D94FEAE4
:100B8000C12343F0004343EA505311F0004F23FACE
:100B900002F018BF404270474FF00000704750EA23
:100BA000013005D111F0004008BF6FF000407047E0
:100BB0004FF00000704700BF4A0011D212F500123A
:100BC00011D20DD56FF47873B3EB62520ED44FEAA5
:100BD000C12343F0004343EA505323FA02F0704725
:100BE0004FF00000704750EA013002D14FF0FF3063
:100BF00070474FF0000070474FEA4102B2F1E04306
:100C000024BFB3F5001CDCF1FE5C0DD901F0004CF3
:100C10004FEAC0024CEA5070B2F1004F40EB830043
:100C200008BF20F00100704711F0804F21D113F16F
:100C30003872BCBF01F00040704741F480114FEAA8
:100C40005252C2F11802C2F1200C10FA0CF320FA31
:100C500002F018BF40F001004FEAC1234FEAD3234E
:100C600003FA0CFC40EA0C0023FA02F34FEA4303B8
:100C7000CCE77FEA625307D150EA01331EBF4FF041
:100C8000FE4040F44000704701F0004040F0FE405C
:100C900040F40000704700BF7BB972B90029BEBFA5
:100CA00000204FF0004106E008BF00281CBF6FF095
:100CB00000414FF0FF3000F0BDB9ADF1080C6DE917
:100CC00004CE002909DB002B1ADB00F04DF8DDF81B
:100CD00004E0DDE9022304B07047404261EB4101CA
:100CE000002B1BDB00F040F8DDF804E0DDE9022317
:100CF00004B0404261EB4101524263EB4303704751
:100D0000524263EB430300F02FF8DDF804E0DDE925
:100D1000022304B0404261EB41017047524263EB51
:100D2000430300F021F8DDF804E0DDE9022304B01C
:100D3000524263EB4303704753B94AB9002908BFD5
:100D400000281CBF4FF0FF314FF0FF3000F072B9A8
:100D5000ADF1080C6DE904CE00F006F8DDF804E012
:100D6000DDE9022304B070472DE9F047089E0446F0
:100D70008846002B4BD18A42154667D9B2FA82F2D7
:100D80004AB1C2F1200701FA02F320FA07F79540B1
:100D900047EA030894404FEA154E230CB8FBFEF7D0
:100DA0001FFA85FC0EFB178843EA084307FB0CF18A
:100DB000994209D9EB1807F1FF3080F01B81994265
:100DC00040F21881023F2B445B1AA4B2B3FBFEF041
:100DD0000EFB103344EA034400FB0CFCA44509D984
:100DE0002C1900F1FF3380F00781A44540F2048103
:100DF00002382C4440EA0740A4EB0C0400271EB143
:100E0000D4400023C6E900433946BDE8F0878B4251
:100E100009D9002E00F0EB800027C6E90001384612
:100E20003946BDE8F087B3FA83F7002F47D18B42EC
:100E300002D3824200F2FA80841A61EB030301209C
:100E40009846002EE0D0C6E90048DDE702B9FFDE93
:100E5000B2FA82F2002A40F08F80491B4FEA154E09
:100E60001FFA85F80127B1FBFEFC230C0EFB1C11B9
:100E700043EA014308FB0CF1994207D9EB180CF146
:100E8000FF3002D2994200F2CD808446591AA3B2B3
:100E9000B1FBFEF00EFB101443EA044408FB00F81B
:100EA000A04507D92C1900F1FF3302D2A04500F26A
:100EB000B6801846A4EB080440EA0C409FE7C7F14F
:100EC000200CBB4022FA0CFE4EEA030E01FA07F496
:100ED00020FA0CF521FA0CF34FEA1E482543B3FB28
:100EE000F8F92C0C08FB19331FFA8EFA44EA034375
:100EF00009FB0AF49C4202FA07F200FA07F10BD947
:100F00001EEB030309F1FF3080F087809C4240F222
:100F10008480A9F1020973441B1BADB2B3FBF8F046
:100F200008FB103345EA034400FB0AFAA24508D93E
:100F30001EEB040400F1FF336BD2A24569D90238DD
:100F4000744440EA0940A0FB0289A4EB0A044C4522
:100F5000C2464B4654D351D0002E69D0B1EB0A059E
:100F600064EB030404FA0CFCFD40FC404CEA05056C
:100F7000C6E90054002747E7C2F1200320FA03F72F
:100F8000954001FA02F021FA03F34FEA154E384377
:100F9000010CB3FBFEF71FFA85F80EFB173341EA8D
:100FA000034107FB08F38B4204FA02F407D96918DE
:100FB00007F1FF3C2FD28B422DD9023F2944CB1A97
:100FC00081B2B3FBFEF00EFB103341EA034100FB9C
:100FD00008F38B4207D9691800F1FF3C17D28B4206
:100FE00015D902382944C91A40EA07473BE7374672
:100FF000304609E70746E7E61846FBE64145ABD22F
:10100000B8EB020A69EB0E0201381346A4E760460A
:10101000E9E7184695E76746D1E781467CE702385D
:101020002C4447E7ACF1020C2B442FE7384608E785
:101030003746E9E6704700BF10B504460E4B1878F6
:101040004FF47A73B3FBF0F30C4A1068B0FBF3F083
:1010500000F06EFB68B90F2C01D901200AE00022D4
:1010600021464FF0FF3000F0E9FA034B5C600020AE
:1010700000E0012010BD00BF00000020280000207B
:1010800008B50B4B1A6842F400721A601A6842F4F1
:1010900080621A601A6842F480721A60032000F0BD
:1010A000AFFA0020FFF7C8FF07F0E2F8002008BD04
:1010B000003C0240034A1168034B1B780B44136049
:1010C000704700BFD002002000000020014B1868CC
:1010D000704700BFD002002038B50446FFF7F6FF86
:1010E0000546B4F1FF3F02D0044B1B781C44FFF7C8
:1010F000EDFF401BA042FAD338BD00BF0000002026
:1011000010B504464F4B5A6822F440325A605A6870
:1011100041680A435A600268536823F4807353603D
:1011200002685368016943EA012353600268536807
:1011300023F0407353600268536881680B43536027
:101140000268936823F40063936002689368C1683F
:101150000B439360826A3C4B9A425BD0026893686F
:1011600023F07063936002689368816A0B43936015
:101170000268936823F04053936002689368C16AE1
:101180000B4393602268936823F002039360226804
:101190009368217E43EA4103936094F82030002B4A
:1011A00049D0636A013B072B3FD82268536843F458
:1011B000006353602268536823F4604353602168DE
:1011C0004B68626A013A43EA42334B602268D36A51
:1011D00023F47003D3622168CB6AE269013A43EADF
:1011E0000253CB622268936823F4007393602268F1
:1011F000936894F8301043EA41239360226893681F
:1012000023F48063936022689368616943EA8123D1
:10121000936010BD0268936823F070639360026866
:10122000936823F040539360ACE740F27571074830
:1012300007F01CF8B9E72268536823F40063536091
:10124000C4E700BF002301400100000F58E300087D
:10125000002800F0E68010B504460268724B9A42FE
:1012600004D040F24311714807F000F8636843B1BD
:10127000B3F5803F05D0B3F5003F02D0B3F5403F52
:1012800071D1A36843B1B3F1807F05D0B3F1007F82
:1012900002D0B3F1407F6CD12369012B6FD8237E3C
:1012A000012B72D8A36A7BB3B3F1807F2CD0B3F14A
:1012B000007F29D0B3F1407F26D0B3F1806F23D0D7
:1012C000B3F1A06F20D0B3F1C06F1DD0B3F1E06FC8
:1012D0001AD0B3F1006F17D0B3F1106F14D0B3F17F
:1012E000206F11D0B3F1306F0ED0B3F1406F0BD03F
:1012F000B3F1506F08D0B3F1606F05D0B3F1706FE8
:1013000002D04B4A934246D1E36813B1B3F5006F64
:1013100047D1E369013B0F2B49D894F83030012BBA
:101320004BD86369022B4ED894F82030012B50D84B
:10133000A26A3F4B9A420AD0E36A43B1B3F1805F9D
:1013400005D0B3F1005F02D0B3F1405F47D1236C09
:10135000002B4AD0236C13F0100F4ED00120002335
:1013600084F83C3010BD4FF4A271304806F07EFF87
:1013700087E740F245112D4806F078FF8CE74FF4DF
:10138000A3712A4806F072FF89E740F24711274807
:1013900006F06CFF86E74FF4A471244806F066FF60
:1013A000B2E740F24911214806F060FFB1E74FF47F
:1013B000A5711E4806F05AFFAFE740F24B111B48DB
:1013C00006F054FFADE74FF4A671184806F04EFF43
:1013D000AAE740F24D11154806F048FFA8E740F291
:1013E0005111124806F042FFB1E7204606F05CFFBB
:1013F0000023636484F83C30ACE7236C23F4885307
:1014000023F0020343F0020323642046FFF778FE33
:1014100000206064236C23F0030343F00103236482
:101420009DE70120704700BF0020014058E30008FD
:101430000100000F30B583B005460C460023019330
:101440000B68122B4ED86368013B0F2B50D8A36852
:10145000072B53D895F83C30012B00F0C7800123AF
:1014600085F83C302368092B4ED92868C2689BB2A6
:1014700003EB43031E3B072101FA03F322EA0303B4
:10148000C3602868C268A168238803EB43031E3B3E
:1014900001FA03F31343C3606368062B4AD8286834
:1014A000426B03EB8303053B1F2101FA03F322EA9E
:1014B000030343632868426B636803EB8303053BC4
:1014C000218801FA03F3134343632A68484B9A4285
:1014D00060D02A68464B9A4265D0002085F83C00CF
:1014E00003B030BD4FF4CB61424806F0BFFEAAE71F
:1014F00040F259613F4806F0B9FEA8E740F25A6150
:101500003C4806F0B3FEA5E7286802699BB203EBEE
:101510004303072101FA03F322EA03030361286866
:101520000269A168238803EB430301FA03F3134321
:101530000361B1E70C2B16D82868026B03EB830319
:10154000233B1F2101FA03F322EA03030363286804
:10155000026B636803EB8303233B218801FA03F3E7
:1015600013430363B1E72868C26A03EB8303413B7B
:101570001F2101FA03F322EA0303C3622868C26A47
:10158000636803EB8303413B218801FA03F31343B0
:10159000C3629AE72368122B9BD1174A536843F41E
:1015A0008003536095E72368103B012B95D8124ABE
:1015B000536843F4000353602368102B8DD10F4B05
:1015C0001B6802F1467202F52E3202F28332A2FB50
:1015D00003239B0C03EB83035A00019202E0019B5F
:1015E000013B0193019B002BF9D176E7022077E7BD
:1015F0000020014058E3000800230140280000209B
:1016000010B50446C31E042B0FD80A4AD36823F42E
:10161000E0631B041B0C240204F4E064234343F046
:10162000BF6343F40033D36010BD9221024806F03B
:101630001DFEEAE700ED00E090E3000870B5054606
:101640000C4616460F2A25D80F2C28D81B4BDB68D2
:10165000C3F30223C3F10702042A28BF0422191D81
:10166000062921D9033B4FF0FF3101FA02F224EAA7
:1016700002049C4001FA03F326EA03063443002DDA
:1016800014DB2401E4B205F1604505F5614585F8F8
:10169000004370BDAA210A4806F0E8FDD4E7AB215B
:1016A000074806F0E3FDD1E70023DCE705F00F056E
:1016B0002401E4B2034B5C55EBE700BF00ED00E012
:1016C00090E3000814ED00E010B5041E0ADB002CC6
:1016D00007DB04F01F02640901239340044A42F827
:1016E000243010BDBE21034806F0C0FDEFE700BF67
:1016F00000E100E090E3000810B5041E0FDB002CB1
:101700000CDB04F01F026409012393402034064AD5
:1017100042F82430BFF34F8FBFF36F8F10BDCE213F
:10172000024806F0A3FDEAE700E100E090E30008CC
:101730000138B0F1807F0AD2064B5860064AF0218A
:1017400082F823100020986007221A607047012059
:10175000704700BF10E000E000ED00E00268D3B287
:10176000103B0B49A1FB03131B090A49C95CC16566
:10177000032B06D822F47F7222F003028265806D6B
:10178000704722F47F7222F0030204328265F6E78A
:10179000ABAAAAAA38E30008836A826992B9012B2E
:1017A0000AD01BB1022B01D000207047C36A13F08E
:1017B000807F2CD100207047C36AB3F1C07F28D04E
:1017C00000207047B2F5005F05D0022B29D9032B0A
:1017D00015D000207047032B03D8DFE803F01C046A
:1017E0001C0A00207047C36A13F0807F15D10020C7
:1017F0007047C36AB3F1C07F11D000207047C36A3D
:1018000013F0807F01D00120704700207047012035
:101810007047012070470120704701207047012068
:10182000704701207047000070B50446FFF74EFC7A
:10183000002C00F03881054623689C4A934231D041
:10184000183293422ED0183293422BD01832934242
:1018500028D01832934225D01832934222D0183221
:1018600093421FD0183293421CD002F55672934215
:1018700018D01832934215D01832934212D0183231
:1018800093420FD0183293420CD01832934209D0B1
:101890001832934206D01832934203D0B8218448BC
:1018A00006F0E4FC6368A3B1B3F1007F11D0B3F19B
:1018B000806F0ED0B3F1C06F0BD0B3F1006F08D0C2
:1018C000B3F1206F05D0B3F1406F02D0B3F1606F78
:1018D0006DD1A3681BB1402B01D0802B6CD1E36884
:1018E000B3F5007F01D0002B6BD12369B3F5806F76
:1018F00001D0002B6AD163692BB1B3F5006F02D020
:10190000B3F5805F67D1A3692BB1B3F5005F02D057
:10191000B3F5804F64D1E36923B1B3F5807F01D083
:10192000202B62D1236A43B1B3F5803F05D0B3F5D4
:10193000003F02D0B3F5403F5CD1636A0BB1042B8A
:101940005DD1636AC3B1A36A032B5DD8E36A43B177
:10195000B3F5000F05D0B3F1807F02D0B3F1C07FA3
:1019600057D1236B43B1B3F5001F05D0B3F5800FFA
:1019700002D0B3F5C00F51D1002384F834300223D4
:1019800084F835302268136823F00103136023685C
:101990001A6812F0010F46D0FFF798FB401B05288C
:1019A000F5D920236365032084F8350070BDB92183
:1019B0003F4806F05BFC8CE7BA213D4806F056FC38
:1019C0008DE7BB213A4806F051FC8EE7BC21384830
:1019D00006F04CFC8FE7BD21354806F047FC92E746
:1019E000BE21334806F042FC95E7BF21304806F09F
:1019F0003DFC97E7C0212E4806F038FC9DE7C12149
:101A00002B4806F033FC9CE7C621294806F02EFC43
:101A10009CE7C721264806F029FCA2E7C8212448F4
:101A200006F024FCA8E71A68224810406168A26802
:101A30000A43E1680A4321690A4361690A43A169CB
:101A40000A43E1690A43216A0A430243616A04299D
:101A50001ED01A602668756925F00705636A1D4364
:101A6000042B07D1A36A1D43E36A1BB12046FFF78D
:101A700093FE90B975612046FFF770FEE26D3F233B
:101A80009340836000206065012384F835308DE742
:101A9000E16A206B01430A43DBE7402363650120D1
:101AA00084F8350082E7012080E700BF1060024023
:101AB000CCE300083F8010F090F83530DBB2022B09
:101AC00003D08023436501207047052380F835301B
:101AD0000268136823F001031360002070470000C0
:101AE000F0B583B0044600230193724B1D68724B1E
:101AF000A3FB0535AD0A876D3E68C26D0823934090
:101B0000334210D003681A6812F0040F0BD01A6821
:101B100022F004021A60C26D08239340BB60436D3B
:101B200043F001034365E26D01239340334209D042
:101B30002268526912F0800F04D0BB60636D43F0DD
:101B400002036365E26D04239340334209D02268A7
:101B5000126812F0020F04D0BB60636D43F00403FF
:101B60006365E26D10239340334224D022681268EB
:101B700012F0080F1FD0BB6023681A6812F4802F80
:101B80000DD01B6813F4002F04D1236C9BB12046A9
:101B9000984710E0A36C73B1204698470BE01A6891
:101BA00012F4807F03D11A6822F008021A60236CB5
:101BB0000BB120469847E26D20239340334255D025
:101BC0002268126812F0100F50D0BB6094F83530C4
:101BD000DBB2052B0ED023681A6812F4802F33D0A5
:101BE0001B6813F4002F2AD1636C002B3ED02046D3
:101BF00098473BE02268136823F0160313602268BD
:101C0000536923F080035361236CA3B122681368E6
:101C100023F008031360E26D3F239340BB60002371
:101C200084F83430012384F83530236D002B3FD005
:101C3000204698473CE0A36C002BE7D1EBE7E36B31
:101C4000A3B12046984711E01A6812F4807F09D1A9
:101C50001A6822F010021A60002384F8343001233D
:101C600084F83530E36B0BB120469847636DFBB1C8
:101C7000636D13F0010F17D0052384F83530226807
:101C8000136823F001031360019B01330193AB42FE
:101C900004D823681B6813F0010FF5D1002384F8E2
:101CA0003430012384F83530E36C0BB1204698477B
:101CB00003B0F0BD28000020B5814E1B274BDB6828
:101CC00013F0100F07D0264AD36943F01003D361F5
:101CD000224B1022DA60214BDB6813F0200F07D073
:101CE0001F4AD36943F00803D3611C4B2022DA60FA
:101CF0001A4BDB6813F0400F07D0194AD36943F041
:101D00000403D361154B4022DA60144BDB6813F0F7
:101D1000800F07D0124AD36943F00203D3610F4BFF
:101D20008022DA600D4BDB6813F4807F08D00C4A08
:101D3000D36943F00103D361084B4FF48072DA603A
:101D4000064BDB6813F0020F07D0054AD36943F056
:101D50002003D361014B0222DA607047003C02404D
:101D6000D402002038B504460D4600F17843B3F59F
:101D7000002F06D300F1604303F50843B3F5047F59
:101D80000CD2094B1A6922F440721A611A691A615D
:101D90001A6942F001021A61257038BD40F2BB2178
:101DA000024806F063FAECE7003C024004E4000855
:101DB00038B504460D4600F17843B3F5002F06D33D
:101DC00000F1604303F50843B3F5047F0ED20A4BDC
:101DD0001A6922F440721A611A6942F480721A6117
:101DE0001A6942F001021A61258038BD40F2A22131
:101DF000024806F03BFAEAE7003C024004E400082F
:101E000038B504460D4600F17843B3F5002F06D3EC
:101E100000F1604303F50843B3F5047F0ED20A4B8B
:101E20001A6922F440721A611A6942F400721A6146
:101E30001A6942F001021A61256038BD40F2892119
:101E4000024806F013FAEAE7003C024004E4000806
:101E500070B5044616461D4600F17843B3F5002FD1
:101E600006D300F1604303F50843B3F5047F11D2B4
:101E70000B4B1A6922F440721A611A6942F44072DB
:101E80001A611A6942F001021A612660BFF36F8F6E
:101E9000656070BD40F26721024806F0E7F9E7E7A8
:101EA000003C024004E40008094B1B69002B01DBE5
:101EB00000207047064B074A5A6002F188325A6088
:101EC0001B69002B01DB002070470120704700BF19
:101ED000003C02402301674538B50446154B0022FB
:101EE000DA61FFF7F3F80546134BDB6813F4803F24
:101EF0000AD0B4F1FF3FF7D0CCB1FFF7E7F8401BB1
:101F0000A042F1D903200DE00B4BDB6813F0010F69
:101F100002D0094B0122DA60074BDB6813F4F97F2A
:101F200001D1002038BDFFF7C9FE0120FAE70320E8
:101F3000F8E700BFD4020020003C0240F8B5214C75
:101F4000247E012C3BD01F4616460D4604461D4BF1
:101F500001221A7603281ED84CF25030FFF7BCFF3E
:101F6000014698B9E4B1012C1FD0022C22D0324690
:101F70003B462846FFF76CFF4CF25030FFF7ACFFB2
:101F80000146114A136923F0010313610D4B00222E
:101F90001A760846F8BDA4210C4806F067F9DBE77D
:101FA000F1B22846FFF7DEFEE6E7B1B22846FFF7BA
:101FB000FFFEE1E731462846FFF722FFDCE702217A
:101FC000E7E700BFD4020020003C024004E4000820
:101FD00038B504460D46032816D8012D04D040F22A
:101FE000BD310C4806F042F90B4B1A6922F44072DD
:101FF0001A611A6942F004021A61186940EA042061
:1020000040F48030186138BD4FF46F71014806F01C
:102010002DF9E2E740E40008003C024038B50446F0
:102020000D46072809D8032D0DD8ADB1012D2BD0B1
:10203000022D0ED04FF440700FE040F2DB31144817
:1020400006F014F9EFE74FF47771114806F00EF936
:10205000EBE74FF4007000E000200E4B196921F40B
:10206000407119611A6902431A611A6922F0F80273
:102070001A61186940EAC40040F0020018611A6948
:1020800042F480321A6138BD4FF48070E5E700BF3A
:1020900040E40008003C0240164B1B6813F4007F2C
:1020A00010D0144B1A6822F400721A601A6842F4B5
:1020B00000621A601A6822F400621A601A6842F418
:1020C00000721A600B4B1B6813F4806F10D0094B21
:1020D0001A6822F480621A601A6842F480521A6008
:1020E0001A6822F480521A601A6842F480621A60F8
:1020F000704700BF003C0240F8B52C4B1B7E012B03
:1021000052D00E460446294B01221A7603689342A8
:1021100029D84CF25030FFF7DFFE074600283ED1A9
:102120004FF0FF3333602368012B21D0E368A268AE
:102130001344013B072B2AD8A568E368A26813441F
:10214000AB422AD9217C2846FFF768FF4CF2503079
:10215000FFF7C2FE164A136923F0FA03136107461C
:10216000D0B90135E9E7AB21124806F07FF8D0E796
:102170006168207CFFF72CFF4CF25030FFF7ACFE7B
:1021800007460B4A136923F00403136105E0C321DA
:10219000084806F06BF8CFE73560FFF77DFF034B8B
:1021A00000221A763846F8BD0227FBE7D402002049
:1021B000003C024040E400082DE9F04383B0804633
:1021C0000E46A24B984217D003F58063984213D075
:1021D00003F5806398420FD003F5806398420BD0DB
:1021E00003F58063984207D003F54063984203D01B
:1021F000B321974806F03AF833689AB212B11B0C33
:102200001B041BB1B421924806F030F87368012B0F
:102210001ED9112B1CD0022B1AD0122B18D08D4A8C
:10222000934215D002F58012934211D002F580122C
:1022300093420DD0A2F5F812934209D002F5801214
:10224000934205D002F58012934201D0032B04D1B2
:10225000B368022B06D8002445E0B5217C4806F07F
:1022600005F8F5E7B6217A4806F000F8F3E7C8214B
:10227000774805F0FBFF4AE0042300E000238B4091
:1022800003430232744941F82230744B1A68FB430D
:1022900003EA0201706810F4803F01D047EA0201AE
:1022A0006E4A1160526803EA0201706810F4003F40
:1022B00001D047EA0201694A5160926803EA0201CB
:1022C000706810F4801F01D047EA0201634A9160F0
:1022D000D2681340716811F4001F01D047EA02036D
:1022E0005E4AD36001340F2C00F2AC800125A5407A
:1022F00037682F40BD42F5D173685A1E012A03D9B1
:10230000112B01D0122B19D1F368032BAFD8D8F8B9
:102310000820610003238B4022EA0302F3688B400C
:102320001343C8F80830D8F8042022EA050273687D
:10233000C3F30015A5401543C8F80450D8F80C2085
:102340004FEA4409032505FA09F5ED432A40B3682D
:1023500003FA09F31343C8F80C307368022B01D059
:10236000122B2BD13369CBB10C2B17D0012B15D0ED
:10237000022B13D0042B11D0052B0FD0062B0DD020
:10238000072B0BD0082B09D00A2B07D0092B05D01F
:102390000F2B03D0E0212E4805F068FFE208083239
:1023A00058F8220004F0070399000F238B4020EA1D
:1023B000030033698B40034348F82230D8F80030DB
:1023C0001D40736803F0030303FA09F31D43C8F8C3
:1023D0000050736813F0805F84D000230193204B7A
:1023E0005A6C42F480425A645B6C03F4804301935C
:1023F000019BA208911C184B53F8210004F0030321
:1024000099000F238B4020EA0300104B98453FF4BE
:1024100035AF03F5806398450ED003F5806398458A
:102420000CD003F5806398450AD003F58063984586
:102430003FF422AF072322E7012320E702231EE710
:1024400003231CE703B0BDE8F08300BF0000024097
:1024500080E400080000111000380140003C0140F9
:102460000038024038B505460C4621B12B691C42A4
:1024700007D1002038BD4FF4BF71034805F0F6FEC8
:10248000F4E70120F6E700BF80E4000870B50646D7
:1024900015460C4629B1012D09D875B92404B4613B
:1024A00070BD40F29F11064805F0E0FEF3E74FF4DF
:1024B000D071034805F0DAFEEFE7B461F0E700BF42
:1024C00080E4000838B505460C4629B16B6934EA4A
:1024D000030307D0AC6138BD4FF4DB71034805F04E
:1024E000C5FEF3E72404AC61F5E700BF80E4000813
:1024F00003685A6912F4806F11D06FF480625A61D8
:1025000000230363202280F83D2080F83E30026CD7
:1025100042F00402026480F83C3001207047002041
:102520007047F8B506460C4617461D4622E0FEF7F2
:10253000CDFD069BC01AA84200D8DDB90023336345
:10254000202286F83D2086F83E30326C42F0200290
:10255000326486F83C3001201AE033685B6924EA73
:1025600003039BB2B3FA83F35B099F420FD1B5F12A
:10257000FF3FDCD1C4F30743012BEED033689B69E6
:1025800024EA03039BB2B3FA83F35B09EDE700206F
:10259000F8BDF8B504460D4616461F463CE01A68DD
:1025A00042F400721A6023686FF480625A6100235B
:1025B0002363202284F83D2084F83E30226C42F0D0
:1025C0000402226484F83C30012033E0FEF77EFDF3
:1025D000C01BB04200D8FEB900232363202284F838
:1025E0003D2084F83E30226C42F02002226484F8C0
:1025F0003C3001201EE023685B6925EA03039BB29F
:10260000003318BF0123A3B123685A6912F4806F05
:10261000C5D1B6F1FF3FD9D1C5F30743012BEAD0AD
:1026200023689B6925EA03039BB2003318BF01238B
:10263000E9E70020F8BD0000F0B583B004460F467E
:1026400015461E46C36A082B0DD0012B0BD013F57F
:10265000803F08D0036B122B0AD10268136843F441
:102660008073136004E02268136843F4807313607E
:1026700000962B4600224FF001112046FFF751FF34
:1026800058B123681B6813F4807F2BD04FF400737C
:1026900023640323184603B0F0BD2369B3F5804FCC
:1026A0000ED1236807F0FE071F6133462A460F4903
:1026B0002046FFF76EFF03460028EBD00123E9E731
:1026C000FB11226803F0060343F0F0031361334665
:1026D0002A4607492046FFF75CFF28B92368FFB266
:1026E0001F61E2E70323D5E70123D3E702000100DE
:1026F0000800010070B504460D46164623685B6964
:1027000013F0800F1CD12046FFF7F2FED0B9B5F1CF
:10271000FF3FF3D0FEF7DAFC801BA84201D8002D62
:10272000ECD100232363202284F83D2084F83E303E
:10273000226C42F02002226484F83C30012000E048
:10274000002070BD0120FCE72DE9F04184B0044673
:10275000884616461F460B9D0268136843F4807333
:10276000136000950A9B00224FF00111FFF7D9FE7C
:1027700060B123681B6813F4807F4FD04FF400735F
:1027800023640323184604B0BDE8F081226808F0F2
:10279000FE0313612B460A9A21492046FFF7F9FEF2
:1027A00008B10123EEE70023039323685A690392DB
:1027B0009B690393039B2A460A992046FFF79AFFD9
:1027C000034658B1236C042B01D00123DAE72268B9
:1027D000136843F4007313600123D3E7012F0ED075
:1027E0002368320A1A612A460A992046FFF782FFB7
:1027F000034678B1236C042B05D00123C2E722687D
:10280000F6B21661BEE72268136843F400731360E2
:102810000123B7E72268F6B21661B3E70323B1E7F5
:10282000020001002DE9F04184B004460E4617462F
:1028300098460B9D0268136843F480631360026836
:10284000136843F48073136000950A9B00224FF0D5
:102850000111FFF766FE68B123681B6813F4807FDF
:1028600000F089804FF4007323640323184604B0FA
:10287000BDE8F081F6B2236806F0FE021A612B462D
:102880000A9A3F492046FFF784FE08B10123EDE78D
:102890000023039323685A6903929B690393039B64
:1028A0002A460A992046FFF725FF58B1236C042BCE
:1028B00001D00123DAE72268136843F40073136040
:1028C0000123D3E7B8F1010F0DD12368FFB21F61D7
:1028D0002A460A992046FFF70DFF20B3236C042BEC
:1028E0001AD00123C2E723683A0A1A612A460A99D4
:1028F0002046FFF7FFFE58B1236C042B01D00123C3
:10290000B4E72268136843F4007313600123ADE752
:102910002368FFB21F61DBE72268136843F400738A
:1029200013600123A2E72268136843F480731360E5
:1029300000950A9B00224FF001112046FFF7F1FDA0
:1029400048B123681B6813F4807F16D04FF40073DE
:10295000236403238AE7236846F001061E612B46A1
:102960000A9A07492046FFF714FE034600283FF461
:102970007DAF01237AE7032378E7032376E700BFDF
:102980000200010070B504460D46164623685B69D7
:1029900013F0040F1CD12046FFF7AAFDD0B9B5F102
:1029A000FF3FF3D0FEF792FB801BA84201D8002D19
:1029B000ECD100232363202284F83D2084F83E30AC
:1029C000226C42F02002226484F83C30012000E0B6
:1029D000002070BD0120FCE770B505460C46164688
:1029E0002B685A6912F0400F29D15A6912F0100F62
:1029F00015D1FEF76BFB801BA04201D8002CEFD154
:102A000000232B63202285F83D2085F83E302A6C78
:102A100042F020022A6485F83C30012070BD6FF03E
:102A200010025A6100232B63202285F83D2085F88F
:102A30003E302A6C2A6485F83C300120EEE7002005
:102A4000ECE70000002800F03B81F8B5044603687D
:102A50009D4A93420CD002F58062934208D002F561
:102A60008062934204D040F2BD11984805F0FEFB0D
:102A70006368013B964A934200F2A580A3681BB1AC
:102A8000B3F5804F40F0A580E36823F47F7323F013
:102A90000303002B40F0A3802369B3F5804F03D0DC
:102AA000B3F5404F40F0A1806369012B00F2A38091
:102AB000A36933F0FE0340F0A480E36913B1402B17
:102AC00040F0A580236A13B1802B40F0A68094F8D3
:102AD0003D30002B00F0A780242384F83D3022688D
:102AE000136823F0010313602268136843F4004362
:102AF00013602268136823F40043136000F0DEFFC4
:102B00006268744B9A4200F29480734B98428CBF77
:102B100000230123002B40F0D580704BA3FB002342
:102B20009B0C21684A6822F03F021A434A602568DC
:102B30002A6A22F03F02666866498E427FD80133D6
:102B400013432B622568E96921F44F4121F0FF010D
:102B50006368604A93427CD801385B00B0FBF3F3B2
:102B60000133C3F30B03042B38BF04230B43EB6186
:102B700021680B6823F0C003E269206A0243134313
:102B80000B6021688B6823F4034323F0FF03226961
:102B9000E068024313438B602168CB6823F0FF0396
:102BA0006269A06902431343CB602268136843F053
:102BB0000103136000202064202384F83D3020634B
:102BC00084F83E00F8BD4FF4DF71404805F04EFB3D
:102BD00054E740F2BF113D4805F048FB54E74FF47D
:102BE000E0713A4805F042FB56E740F2C111374820
:102BF00005F03CFB58E74FF4E171344805F036FB33
:102C000056E740F2C311314805F030FB55E74FF469
:102C1000E2712E4805F02AFB54E740F2C5112B481B
:102C200005F024FB53E784F83C30204605F070FBA8
:102C300052E72B4B98428CBF002301236AE74FF4E5
:102C4000967101FB03F32749A1FB03139B09013391
:102C500076E7A268BAB9461E03EB4307B6FBF7F660
:102C60000136C6F30B06B6FA86F6760936BBC2B94C
:102C7000013803EB4303B0FBF3F30133C3F30B025F
:102C800042F4004372E7461E03EB830707EB870716
:102C9000B6FBF7F60136C6F30B06B6FA86F67609EA
:102CA000E4E7013803EB830303EB8303B0FBF3F2A8
:102CB0000132C2F30B0242F4404357E7012355E7C8
:102CC0000120704701207DE700540040BCE400086B
:102CD0007F1A0600A08601007F841E0083DE1B434E
:102CE000FF083D00D34D62102DE9F04184B0044649
:102CF0000E4690461F46FEF7E9F994F83D30DBB2E8
:102D0000202B04D00226304604B0BDE8F0810546F1
:102D10000090192301224F492046FFF702FC0028AA
:102D200040F0918094F83C30012B00F08E8001231C
:102D300084F83C3023681A6812F0010F03D11A6836
:102D400042F001021A602268136823F400631360E2
:102D5000212384F83D30102384F83E30002323647F
:102D6000C4F824806785638D23853B4BE3622B4643
:102D70000A9A31462046FFF75FFC0646002866D1D6
:102D80000023039323685A6903929B690393039B6F
:102D900012E0236C042B01D00126B4E722681368EB
:102DA00043F4007313600126ADE72A460A992046D2
:102DB000FFF7E8FD00282CD1238D002B35D02A46C3
:102DC0000A992046FFF796FC0028E2D1626A236840
:102DD00012781A61616A4B1C6362638D013B9BB27E
:102DE0006385238D013B9BB223852268506910F0D7
:102DF000040FDAD0002BD8D04B781361636A01330B
:102E00006362638D013B9BB26385238D013B238508
:102E1000CBE7236C042B01D0012674E722681368EA
:102E200043F40073136001266DE72268136843F4CE
:102E300000731360202384F83D30002384F83E3073
:102E400084F83C305FE702265DE702265BE7012657
:102E500059E700BF020010000000FFFF2DE9F0411C
:102E600082B004460F4690461E46FEF72FF90546EF
:102E7000012E01D0102E09D194F83D30DBB2202B69
:102E80000AD00223184602B0BDE8F08140F6731163
:102E90004F4805F0EBF9EFE70095192301224D4962
:102EA0002046FFF73EFB002840F08B8094F83C3032
:102EB000012B00F08880012384F83C3023681A68D5
:102EC00012F0010F03D11A6842F001021A60226861
:102ED000136823F400631360212384F83D304023FA
:102EE00084F83E3000232364089B6362BDF82430DD
:102EF0006385638D2385384BE36201950A9B0093BC
:102F00003346424639462046FFF71EFC00285CD176
:102F1000238D002B34D02A460A992046FFF7EAFB7E
:102F200010BB626A236812781A61616A4B1C636283
:102F3000238D013B9BB22385628D013A92B262855B
:102F40002268506910F0040FE2D0002BE0D04B78DB
:102F50001361636A01336362238D013B2385638DB3
:102F6000013B9BB26385D3E7236C042B01D0012383
:102F700088E72268136843F400731360012381E734
:102F80002A460A992046FFF7FDFC034658B1236CF8
:102F9000042B01D0012375E72268136843F4007302
:102FA000136001236EE721680A6842F400720A6028
:102FB000202284F83D20002284F83E2084F83C2022
:102FC00060E702235EE702235CE701235AE700BFC4
:102FD000BCE40008020010000000FFFF2DE9F041F2
:102FE00086B004460F4690461E46FEF76FF805462B
:102FF000012E01D0102E09D194F83D30DBB2202BE8
:103000000AD00226304606B0BDE8F08140F6EE1147
:103010009C4805F02BF9EFE70095192301229A4906
:103020002046FFF77EFA002840F03D8194F83C30BE
:10303000012B00F03A81012384F83C3023681A68A0
:1030400012F0010F03D11A6842F001021A602268DF
:10305000136823F400631360222384F83D30402377
:1030600084F83E30002323640C9B6362BDF8343047
:103070006385638D2385854BE36201950E9B0093E9
:103080003346424639462046FFF7CCFB0646002829
:1030900040F00D81238D5BB9029323685A69029237
:1030A0009A690292029A1A6842F400721A6072E0F7
:1030B000012B0AD0022B1AD00023059323685A69EA
:1030C00005929B690593059B65E02268136823F4CC
:1030D000806313600023039323685A6903929A69FB
:1030E0000392039A1A6842F400721A6053E022684D
:1030F000136823F4806313602268136843F4006349
:1031000013600023049323685A6904929B69049313
:10311000049B40E02A460E992046FFF75DFC0028FC
:1031200040F0C78023681A69636A1A70636A0133C2
:103130006362238D013B2385638D013B9BB26385D5
:1031400029E000950E9B002251492046FFF7E9F93E
:10315000002840F0B0802268136843F400731360C5
:1031600023681A69636A1A70626A531C6362238D4A
:10317000013B2385638D013B9BB2638523681B69FB
:103180005370636A01336362238D013B2385638D32
:10319000013B9BB26385238D002B7BD0032B49D849
:1031A000012BB7D0022BCCD000950E9B00223849C2
:1031B0002046FFF7B6F900287FD12268136823F470
:1031C0008063136023681A69636A1A70636A013343
:1031D0006362238D013B2385638D013B9BB2638535
:1031E00000950E9B00222A492046FFF79AF90028F5
:1031F00065D12268136843F40073136023681A6969
:10320000636A1A70626A531C6362238D013B2385D3
:10321000638D013B9BB2638523681B695370636AAE
:1032200001336362238D013B2385638D013B9BB298
:103230006385B0E72A460E992046FFF7CDFB0028AC
:103240003FD123681A69636A1A70626A531C636209
:10325000238D013B2385638D013B9BB263852368EE
:10326000596911F0040F96D01B695370636A0133DA
:103270006362238D013B2385638D013B9BB2638594
:1032800089E700BFBCE40008020010000000FFFF57
:1032900004000100202384F83D30002384F83E30F0
:1032A00084F83C30AEE60226ACE60226AAE6012609
:1032B000A8E60126A6E60126A4E60126A2E6012646
:1032C000A0E601269EE600BF002800F0648270B5EB
:1032D00082B0044603680F2B39D8236813F0010F1E
:1032E0004DD063682BB1B3F5803F02D0B3F5A02F6A
:1032F00032D1A54B9B6803F00C03042B36D0A24BB4
:103300009B6803F00C03082B2BD06368B3F5803F58
:103310005FD0B3F5A02F62D09B4B1A6822F48032A5
:103320001A601A6822F480221A606368002B60D049
:10333000FDF7CCFE0546944B1B6813F4003F1ED1ED
:10334000FDF7C4FE401B6428F5D9032028E2E821DC
:103350008E4804F08BFFC0E7ED218C4804F086FF17
:10336000C7E7894B5B6813F4800FCED0864B1B6890
:1033700013F4003F03D06368002B00F00E82236833
:1033800013F0020F67D0E368012B41D823691F2B8C
:1033900044D87D4B9B6813F00C0F4AD07A4B9B6846
:1033A00003F00C03082B3FD0E368002B77D0784B59
:1033B00001221A60FDF78AFE0546734B1B6813F065
:1033C000020F63D1FDF782FE401B0228F5D90320CE
:1033D000E6E16D4A136843F480331360A5E76A4B56
:1033E0001A6842F480221A601A6842F480321A6025
:1033F0009BE7FDF76BFE0546634B1B6813F4003F2C
:10340000BDD0FDF763FE401B6428F5D90320C7E15A
:1034100040F21F115D4804F029FFB7E74FF49071A7
:103420005A4804F023FFB4E7574B5B6813F4800F4E
:10343000BAD1554B1B6813F0020F04D0E368012B7F
:1034400001D00120ACE1504A136823F0F803216950
:1034500043EAC1031360236813F0080F49D063697E
:10346000012B2ED8636993B34A4B01221A60FDF7F2
:103470002DFE0546444B5B6F13F0020F39D1FDF76B
:1034800025FE401B0228F5D9032089E13E4A136836
:1034900023F0F803216943EAC1031360DBE73C4BE7
:1034A00000221A60FDF712FE0546374B1B6813F029
:1034B000020FD0D0FDF70AFE401B0228F5D90320E9
:1034C0006EE14FF4B071314804F0D0FECAE7314BE1
:1034D00000221A60FDF7FAFD05462B4B5B6F13F0D7
:1034E000020F06D0FDF7F2FD401B0228F5D903209C
:1034F00056E1236813F0040F00F08780A368012BC6
:1035000001D9052B38D1204B1B6C13F0805F39D1CA
:10351000002301931C4B1A6C42F080521A641B6CFE
:1035200003F080530193019B01251B4B1B6813F48F
:10353000807F33D0A368012B44D0052B48D0124B99
:103540001A6F22F001021A671A6F22F004021A673A
:10355000A368002B46D0FDF7B9FD06460A4B1B6F4A
:1035600013F0020F4FD1FDF7B1FD801B41F28833FC
:103570009842F3D9032013E14FF4C671034804F0D5
:1035800075FEC0E70025D0E700380240F4E40008EB
:1035900000004742800E474200700040834A136893
:1035A00043F480731360FDF791FD06467F4B1B6863
:1035B00013F4807FBED1FDF789FD801B0228F5D969
:1035C0000320EDE07A4A136F43F001031367BFE76E
:1035D000774B1A6F42F004021A671A6F42F0010229
:1035E0001A67B5E7FDF772FD0646714B1B6F13F0C6
:1035F000020F08D0FDF76AFD801B41F28833984224
:10360000F3D90320CCE0002D3BD1A369022B3ED897
:10361000A369002B00F0C380654A926802F00C0297
:10362000082A00F09080022B79D1E36913B1B3F539
:10363000800F32D1236A3F2B35D8636A323BB3F512
:10364000BF7F36D8A36A022B05D0042B03D0062BEC
:1036500001D0082B33D1E36A023B0D2B35D8554BF3
:1036600000221A60FDF732FD0546514B1B6813F02E
:10367000007F30D0FDF72AFD401B0228F5D903203A
:103680008EE04B4A136C23F080531364BDE740F285
:10369000CF11494804F0EAFDBAE74FF4EC7146480F
:1036A00004F0E4FDC6E740F2D911434804F0DEFD22
:1036B000C3E74FF4ED71404804F0D8FDC2E740F293
:1036C000DB113D4804F0D2FDC5E74FF4EE713A48F6
:1036D00004F0CCFDC3E7E369226A1343626A43EA5C
:1036E0008213A26A5208013A43EA0243E26A43EAB9
:1036F00002632F4A53602F4B01221A60FDF7E6FC4C
:1037000004462B4B1B6813F0007F06D1FDF7DEFC4F
:10371000001B0228F5D9032042E0002040E0254BA1
:1037200000221A60FDF7D2FC0446214B1B6813F0FF
:10373000007F06D0FDF7CAFC001B0228F5D9032044
:103740002EE000202CE0012B2CD0194B5B6803F4F9
:103750008001E269914201D0012021E003F03F02A3
:10376000216A8A4201D001201AE0616A47F6C072DC
:103770001A408A4201D0012012E003F44032A16ACB
:103780008A4201D001200BE003F07063E26A9342A9
:103790000AD0012004E001207047012000E0002051
:1037A00002B070BD0120FBE70020F9E70070004087
:1037B0000038024060004742F4E40008324B9B6846
:1037C00003F00C03042B5CD0082B01D02F4870476A
:1037D0002DE9F04B2C4B5A6802F03F025B6813F462
:1037E000800F2BD0284B5B68C3F388131E4600273D
:1037F0005C010025E41A65EB0705A90141EA946123
:10380000A001001B61EB0501CB0043EA5073C4002B
:10381000A01943EB07014B0243EAD0534402204670
:1038200019460023FDF788FA174B5B68C3F3014381
:1038300001335B00B0FBF3F0BDE8F08B124B5B682B
:10384000C3F388131E4600275C010025E41A65EBCC
:103850000705A90141EA9461A001001B61EB050184
:10386000CB0043EA5073C400A01943EB07018B025D
:1038700043EA90538402204619460023FDF75CFA80
:10388000D2E70348704700BF003802400024F4002C
:1038900000127A00002800F0FA8070B504460D4648
:1038A0000368013B0E2B11D8072D15D87A4B1B68E6
:1038B00003F00F03AB4215D2EBB2774A13701368D3
:1038C00003F00F03AB420DD0012070BD40F2512137
:1038D000724804F0CBFCE7E740F252216F4804F055
:1038E000C5FCE3E7236813F0020F29D013F0040F9F
:1038F00004D06B4A936843F4E0539360236813F059
:10390000080F04D0664A936843F460439360A36849
:103910007BB1802B0DD0902B0BD0A02B09D0B02BDE
:1039200007D0C02B05D0D02B03D0E02B01D0F02B3B
:1039300033D15B4A936823F0F003A1680B43936093
:10394000236813F0010F42D06368032B2BD8636800
:10395000012B2ED09A1E012A32D9514A126812F038
:10396000020F00F096804E498A6822F0030213434A
:103970008B60FDF7ABFB0646494B9B6803F00C03DD
:103980006268B3EB820F22D0FDF7A0FB801B41F2EF
:1039900088339842F0D9032097E740F275213F48D9
:1039A00004F064FCC5E74FF41F713C4804F05EFC72
:1039B000CDE73B4A126812F4003FD4D1012084E7DE
:1039C000374A126812F0007FCDD101207DE7324BDB
:1039D0001B6803F00F03AB4209D9EAB22E4B1A70F1
:1039E0001B6803F00F03AB4201D001206DE7236891
:1039F00013F0040F14D0E3685BB1B3F5805F08D017
:103A0000B3F5A05F05D0B3F5C05F02D0B3F5E05FBA
:103A100031D1234A936823F4E053E1680B43936068
:103A2000236813F0080F15D023695BB1B3F5805FED
:103A300008D0B3F5A05F05D0B3F5C05F02D0B3F5F1
:103A4000E05F1ED1164A936823F46043216943EA7C
:103A5000C1039360FFF7B2FE114B9B68C3F30313DE
:103A6000104AD35CD840104B1860104B1868FDF713
:103A7000E3FA002029E740F2BA21084804F0F6FBF7
:103A8000C7E740F2C121054804F0F0FBDAE7012066
:103A90007047012019E700BF003C0240F4E4000831
:103AA0000038024040E30008280000200400002005
:103AB000014B1868704700BF2800002008B5FFF7C9
:103AC000F7FF044B9B68C3F38223034AD35CD840BF
:103AD00008BD00BF0038024050E3000808B5FFF7FA
:103AE000E7FF044B9B68C3F34233034AD35CD840DF
:103AF00008BD00BF0038024050E30008F8B5054695
:103B00000F4616461C462B689B6837EA03030CBF1A
:103B100001230023B34237D0B4F1FF3FF3D0FDF7C8
:103B2000D5FA069BC01AA04201D2002CEBD12A681C
:103B3000536823F0E00353606B68B3F5827F0BD0CA
:103B4000AB6AB3F5005F14D0012385F85130002330
:103B500085F85030032018E0AB68B3F5004F02D071
:103B6000B3F5806FECD12A68136823F0400313602B
:103B7000E6E72A68136823F4005313602A68136881
:103B800043F400531360DFE70020F8BD30B585B083
:103B9000164C2468164DA5FB0434640D4FF47A7559
:103BA00005FB04F403944468B4F5827F0BD0039BB7
:103BB000C3B1039B013B039303689B6813F0800F21
:103BC000F5D100230FE00B4604460092002280212D
:103BD000FFF794FF034630B1636D43F02003636544
:103BE000032300E00023184605B030BD2800002064
:103BF000819F5E16002800F0C48010B5044603685B
:103C0000614A934210D0A2F5784293420CD002F55B
:103C10008062934208D002F57842934204D04FF478
:103C2000A1715A4804F022FB636813B1B3F5827F97
:103C30006BD1A3682BB1B3F5806F02D0B3F5004F01
:103C400069D1E368B3F5006F01D0002B69D1A36996
:103C5000B3F5007F03D013B1B3F5802F67D1E369CB
:103C60006BB1082B0BD0102B09D0182B07D0202BB1
:103C700005D0282B03D0302B01D0382B5DD1236AFF
:103C80000BB1802B5FD1636A0BB1102B61D1636ADA
:103C900033B923690BB1022B61D16369012B64D85D
:103CA0000023A36294F85130002B64D0022384F8DF
:103CB00051302268136823F0400313606368A268E0
:103CC0001343E26813432269134362691343A269F1
:103CD00002F400721343E2691343226A1343A16A98
:103CE00022680B431360638B03F00403616A22684C
:103CF0000B4353602268D36923F40063D36100202F
:103D00006065012384F8513010BD40F243111F4813
:103D100004F0ACFA8DE74FF4A2711C4804F0A6FA47
:103D20008FE740F24511194804F0A0FA8FE74FF4ED
:103D3000A371164804F09AFA91E740F2471113482C
:103D400004F094FA9BE74FF4A471104804F08EFA43
:103D500099E740F249110D4804F088FA97E74FF4CB
:103D6000A6710A4804F082FA97E740F24D1107481D
:103D700004F07CFA94E784F85030204604F002FB0B
:103D800094E70120704700BF003001402CE5000897
:103D90002DE9F04182B00446884617461D468368E7
:103DA00013B1B3F5004F19D194F85030012B00F046
:103DB000C580012384F85030FDF788F9064694F851
:103DC0005130DBB2012B0FD00220012384F8513097
:103DD000002384F8503002B0BDE8F08140F2F221B7
:103DE000574804F043FADFE7B8F1000F00F098807D
:103DF000002F00F09780032384F85130002363657F
:103E0000C4F83080A786E786A363A387E38763644B
:103E10002364A368B3F5004F1CD023681A6812F01E
:103E2000400F03D11A6842F040021A60E368B3F50C
:103E3000006F15D063680BB1012F49D1226B236845
:103E400012781A73236B01332363E38E013B9BB219
:103E5000E3863DE02268136843F480431360DCE7A7
:103E600063680BB1012F15D1226B23681288DA60C9
:103E7000236B02332363E38E013B9BB2E38609E0AD
:103E8000FDF724F9801BA84202D3B5F1FF3F4BD1C7
:103E9000002D4BD0E38E9BB2002B2CD023689A6868
:103EA00012F0020FECD0226B1288DA60236B02331F
:103EB0002363E38E013B9BB2E386EBE7FDF706F954
:103EC000801BA84202D3B5F1FF3F31D1002D31D084
:103ED000E38E9BB27BB123689A6812F0020FEDD09B
:103EE000226B12781A73236B01332363E38E013B39
:103EF0009BB2E386ECE7324629462046FFF746FEB2
:103F000008B120236365A36833B901932368DA6895
:103F100001929B680193019B636D6BB9002054E78C
:103F2000012052E7012050E703204EE703204CE731
:103F300003204AE7032048E7012046E702204AE73A
:103F40002CE5000890F85100704710B4036A046A29
:103F500024F001040462846924F0F00444EA0212AB
:103F600023F00A030B43826103625DF8044B704740
:103F700030B4046A24F0100404628469056A24F4ED
:103F8000407444EA022222F470421B039BB21A439B
:103F900025F0A005090101F0A00129438261016219
:103FA00030BC704710B4036A23F0100303628469C5
:103FB000036A24F4704444EA023223F0A00343EA83
:103FC0000113826103625DF8044B704730B4046AE8
:103FD00024F480740462C469056A24F00304224353
:103FE00022F0F0021B01DBB21A4325F4206509021E
:103FF00001F420612943C261016230BC704730B4D2
:10400000046A24F480540462C469056A24F4407488
:1040100044EA022222F470421B039BB21A4325F4A5
:104020002045090301F420412943C261016230BCEB
:104030007047836823F07003194341F007018160E2
:10404000704700002DE9F04104460D46036A23F055
:1040500001030362066A4768836923F073080B68EB
:1040600043EA080826F002038E681E431D4B98425F
:104070000AD01C4B9C4218D06760C4F818806B684B
:1040800063632662BDE8F081CB680BB1082B06D1D3
:1040900026F00806EB681E4326F00406E9E741F225
:1040A0000271114804F0E2F8F2E7AB69B3F5007F62
:1040B00000D05BB96B69B3F5807F00D063B927F49A
:1040C00040776B693B43AF691F43D5E741F20F71FE
:1040D000054804F0CBF8EDE741F21071024804F016
:1040E000C5F8ECE70000014064E500082DE9F04167
:1040F00004460E46036A23F480730362056A476828
:10410000C36923F073080B6843EA080825F40075B7
:104110008B6845EA03251F4B98420AD01D4B9C42F1
:1041200019D06760C4F81C807368E3632562BDE83A
:10413000F081CB680BB1082B07D125F40065F3683B
:1041400045EA032525F48065E8E741F298711248B5
:1041500004F08CF8F1E7B369B3F5007F00D06BB9D8
:104160007369B3F5807F00D073B927F44057736942
:1041700047EA0317B36947EA0317D2E741F2A5718B
:10418000054804F073F8EBE741F2A671024804F029
:104190006DF8EAE70000014064E500082DE9F04110
:1041A00004460F46036A23F480530362056AD0F87D
:1041B0000480C66926F4E6460B6846EA032625F421
:1041C00000558B6845EA03350D4B984207D0C4F87B
:1041D0000480E6617B6823642562BDE8F0814B6959
:1041E000B3F5807F00D02BB928F480487B6948EA7A
:1041F0008318ECE741F2E471024804F037F8F3E782
:104200000000014064E5000810B5044603681A4A3E
:1042100093421FD0B3F1804F1CD0A2F57C42934251
:1042200018D002F58062934214D002F58062934266
:1042300010D002F59A3293420CD002F5806293427C
:1042400008D002F58062934204D040F285110B48F9
:1042500004F00CF8022384F83D302268936803F0E0
:104260000703062B03D0136843F0010313600123F7
:1042700084F83D30002010BD0000014064E50008D6
:1042800010B5044603681A4A93421FD0B3F1804F19
:104290001CD0A2F57C42934218D002F58062934272
:1042A00014D002F58062934210D002F59A32934204
:1042B0000CD002F58062934208D002F580629342EE
:1042C00004D040F2B9110B4803F0D0FF2268D36844
:1042D00043F00103D3602268936803F00703062BC1
:1042E00003D0136843F001031360002010BD00BF2A
:1042F0000000014064E500087047704710B50446AF
:104300000C2900F28580DFE801F0078383832E8388
:1043100083834D838383680003683E4A93421FD0A2
:10432000B3F1804F1CD0A2F57C42934218D002F525
:104330008062934214D002F58062934210D002F55D
:104340009A3293420CD002F58062934208D002F573
:104350008062934204D041F295212F4803F086FFFA
:104360002368586B10BD03682A4A934217D0B3F1F3
:10437000804F14D0A2F57C42934210D002F58062A7
:1043800093420CD002F58062934208D002F59A3233
:10439000934204D041F29F211F4803F067FF236836
:1043A000986BDFE703681B4A934213D0B3F1804F49
:1043B00010D0A2F57C4293420CD002F58062934269
:1043C00008D002F58062934204D041F2AA2112483B
:1043D00003F04CFF2368D86BC4E703680D4A93428F
:1043E00013D0B3F1804F10D0A2F57C4293420CD091
:1043F00002F58062934208D002F58062934204D0B5
:1044000041F2B521044803F031FF2368186CA9E795
:104410000020A7E70000014064E5000870477047EE
:104420007047704710B5044603681A6912F0020F0E
:1044300011D0DA6812F0020F0DD06FF002021A618B
:104440000123037703689B6913F0030F70D002F018
:10445000E7FE0023237723681A6912F0040F12D0B5
:10446000DA6812F0040F0ED06FF004021A61022312
:10447000237723689B6913F4407F5FD0204602F0C6
:10448000CFFE0023237723681A6912F0080F12D099
:10449000DA6812F0080F0ED06FF008021A610423D8
:1044A00023772368DB6913F0030F4ED0204602F018
:1044B000B7FE0023237723681A6912F0100F12D079
:1044C000DA6812F0100F0ED06FF010021A61082394
:1044D00023772368DB6913F4407F3DD0204602F048
:1044E0009FFE0023237723681A6912F0010F03D07F
:1044F000DA6812F0010F36D123681A6912F0800FC2
:1045000003D0DA6812F0800F34D123681A6912F0F0
:10451000400F03D0DA6812F0400F32D123681A69D5
:1045200012F0200F03D0DA6812F0200F30D110BD46
:10453000FFF775FF2046FFF773FF8AE72046FFF776
:104540006EFF2046FFF76CFF9BE72046FFF767FFF3
:104550002046FFF765FFACE72046FFF760FF2046E7
:10456000FFF75EFFBDE76FF001021A612046FFF71B
:1045700055FFC1E76FF080021A61204600F0E9FFA5
:10458000C3E76FF040021A612046FFF74AFFC5E714
:104590006FF020021A61204600F0DAFFC7E7000042
:1045A0000368254A90420ED0B0F1804F0BD0A2F59F
:1045B0007C42904207D002F58062904203D002F51F
:1045C0008062904203D123F070034A6813431A4A71
:1045D00090421AD0B0F1804F17D0A2F57C429042A1
:1045E00013D002F5806290420FD002F580629042B3
:1045F0000BD002F59A32904207D002F580629042C9
:1046000003D002F58062904203D123F44073CA685C
:10461000134323F080034A69134303608B68C3622A
:104620000B688362044B984202D0012343617047B8
:104630000B690363F9E700BF00000140002862D066
:1046400010B504460368314A93421FD0B3F1804F3E
:104650001CD0A2F57C42934218D002F580629342AE
:1046600014D002F58062934210D002F59A32934240
:104670000CD002F58062934208D002F5806293422A
:1046800004D04FF48971224803F0F0FDA3683BB1D8
:10469000102B05D0202B03D0402B01D0602B1AD13A
:1046A00023692BB1B3F5807F02D0B3F5007F18D119
:1046B000A3690BB1802B1AD194F83D30EBB10223E2
:1046C00084F83D30211D2068FFF76AFF012384F83C
:1046D0003D30002010BD40F213110D4803F0C6FD1F
:1046E000DEE74FF48A710A4803F0C0FDE0E740F2CC
:1046F0001511074803F0BAFDDEE784F83C30204688
:1047000003F08EFEDBE70120704700BF0000014090
:1047100064E50008002862D010B504460368314AF9
:1047200093421FD0B3F1804F1CD0A2F57C4293423C
:1047300018D002F58062934214D002F58062934251
:1047400010D002F59A3293420CD002F58062934267
:1047500008D002F58062934204D040F29B41224887
:1047600003F084FDA3683BB1102B05D0202B03D0B0
:10477000402B01D0602B1AD123692BB1B3F5807F78
:1047800002D0B3F5007F18D1A3690BB1802B1AD1E9
:1047900094F83D30EBB1022384F83D30211D2068B0
:1047A000FFF7FEFE012384F83D30002010BD40F2EB
:1047B0009C410D4803F05AFDDEE740F29D410A4856
:1047C00003F054FDE0E740F29E41074803F04EFD40
:1047D000DEE784F83C302046FFF78EFDDBE7012062
:1047E000704700BF0000014064E50008002862D067
:1047F00010B504460368314A93421FD0B3F1804F8D
:104800001CD0A2F57C42934218D002F580629342FC
:1048100014D002F58062934210D002F59A3293428E
:104820000CD002F58062934208D002F58062934278
:1048300004D040F2D961224803F018FDA3683BB1CF
:10484000102B05D0202B03D0402B01D0602B1AD188
:1048500023692BB1B3F5807F02D0B3F5007F18D167
:10486000A3690BB1802B1AD194F83D30EBB1022330
:1048700084F83D30211D2068FFF792FE012384F863
:104880003D30002010BD40F2DA610D4803F0EEFC2F
:10489000DEE740F2DB610A4803F0E8FCE0E740F2C3
:1048A000DC61074803F0E2FCDEE784F83C30204698
:1048B000FFF723FDDBE70120704700BF0000014048
:1048C00064E500082DE9F04104460F46036A23F031
:1048D00010030362056AD0F80480866926F4E64670
:1048E0000B6846EA032625F020058B6845EA031588
:1048F0001F4B98420AD01E4B9C4219D0C4F804802A
:10490000A6617B68A3632562BDE8F081CB680BB12B
:10491000082B07D125F08005FB6845EA031525F033
:104920004005E8E741F24D71124803F09FFCF1E7C2
:10493000BB69B3F5007F00D06BB97B69B3F5807FAD
:1049400000D073B928F440687B6948EA8308BB69E2
:1049500048EA8308D2E741F25B71064803F086FC1F
:10496000EBE741F25C71034803F080FCEAE700BF2B
:104970000000014064E5000870B504460D46164687
:104980003AB1042A05D0082A03D00C2A01D03C2AC7
:1049900022D12B68602B01D0702B23D1AB680BB1D7
:1049A000022B25D12B690BB1042B27D194F83C3075
:1049B000012B00F0F180012384F83C30022384F8BD
:1049C0003D300C2E57D8DFE806F01F5656565D5680
:1049D00056568E565656BA0040F6EC516F4803F0C4
:1049E00045FCD6E740F6ED516C4803F03FFCD5E7B7
:1049F00040F6EE51694803F039FCD3E740F6EF5139
:104A0000664803F033FCD1E72368654A93421FD020
:104A1000B3F1804F1CD0A2F57C42934218D002F52E
:104A20008062934214D002F58062934210D002F566
:104A30009A3293420CD002F58062934208D002F57C
:104A40008062934204D040F6FB51544803F00EFCC0
:104A500029462068FFF7F6FA2268936943F00803B5
:104A600093612268936923F0040393612268936938
:104A700029690B439361012384F83D30002084F8B9
:104A80003C0070BD2368464A934217D0B3F1804F73
:104A900014D0A2F57C42934210D002F5806293427A
:104AA0000CD002F58062934208D002F59A3293420C
:104AB00004D040F60C61394803F0D8FB2946206841
:104AC000FFF700FF2268936943F400639361226853
:104AD000936923F48063936122689369296943EAA7
:104AE00001239361C7E723682D4A934213D0B3F1A2
:104AF000804F10D0A2F57C4293420CD002F5806228
:104B0000934208D002F58062934204D040F61D61C2
:104B1000224803F0ABFB29462068FFF7E7FA22683A
:104B2000D36943F00803D3612268D36923F00403F7
:104B3000D3612268D36929690B43D3619BE723685A
:104B4000174A934213D0B3F1804F10D0A2F57C42A4
:104B500093420CD002F58062934208D002F5806245
:104B6000934204D040F62E610C4803F07FFB2946A7
:104B70002068FFF713FB2268D36943F40063D36115
:104B80002268D36923F48063D3612268D3692969D9
:104B900043EA0123D3616EE7022072E764E500086F
:104BA0000000014070B4046A24F0010404628469C6
:104BB000056A154EB04215D0B0F1804F12D0A6F55F
:104BC0007C46B0420ED006F58066B0420AD006F5AB
:104BD0008066B04206D006F59A36B04202D044F064
:104BE000010202E024F00304224322F0F0021B0140
:104BF000DBB2134325F00A0201F00A01114383617D
:104C0000016270BC704700BF0000014070B50446EF
:104C10000D46164603687E4A93421FD0B3F1804F7B
:104C20001CD0A2F57C42934218D002F580629342D8
:104C300014D002F58062934210D002F59A3293426A
:104C40000CD002F58062934208D002F58062934254
:104C500004D040F689516F4803F008FB2B681BB164
:104C6000022B01D00A2B4AD16B68013B022B4CD896
:104C7000AB682BB1042B03D0082B01D00C2B4AD1ED
:104C8000EB680F2B4DD894F83C30012B00F0BD8021
:104C9000012384F83C30022384F83D30002E46D0B6
:104CA000042E5BD0082E00F087802368584A934278
:104CB00013D0B3F1804F10D0A2F57C4293420CD0B8
:104CC00002F58062934208D002F58062934204D0DC
:104CD00040F6C5514F4803F0C9FAEB686A68296885
:104CE0002068FFF78CF92268D36923F44063D3610D
:104CF0002268D369A96843EA0123D36127E040F61B
:104D00008A51444803F0B2FAAEE740F68B5141486D
:104D100003F0ACFAACE740F68C513E4803F0A6FA3B
:104D2000AEE740F68D513B4803F0A0FAABE7EB68E5
:104D30006A6829682068FFF735FF2268936923F0C5
:104D40000C03936122689369A9680B439361012363
:104D500084F83D30002084F83C0070BD23682C4A64
:104D6000934217D0B3F1804F14D0A2F57C42934206
:104D700010D002F5806293420CD002F5806293421B
:104D800008D002F59A32934204D040F6A55121484A
:104D900003F06CFAEB686A6829682068FFF7E8F8A6
:104DA0002268936923F44063936122689369A96838
:104DB00043EA01239361CAE72368154A934213D05B
:104DC000B3F1804F10D0A2F57C4293420CD002F593
:104DD0008062934208D002F58062934204D040F68C
:104DE000B5510C4803F042FAEB686A6829682068FC
:104DF000FFF7ECF82268D36923F00C03D361226833
:104E0000D369A9680B43D361A1E70220A5E700BFDE
:104E10000000014064E5000810B4846824F47F4475
:104E200042EA03230B43234383605DF8044B70473E
:104E300038B590F83C30012B00F0FA810D4604465D
:104E4000012380F83C30022380F83D300B68B3F535
:104E5000805F11D0B3F5005F0ED06BB1102B0BD07B
:104E6000202B09D0302B07D0402B05D0502B03D05E
:104E7000602B01D0702B49D12268936823F47F43C3
:104E800023F0770393602B68402B00F0938143D984
:104E9000702B00F0D7806BD8502B00F04181602B35
:104EA00040F00E8123689C4A934217D0B3F1804FA3
:104EB00014D0A2F57C42934210D002F58062934256
:104EC0000CD002F58062934208D002F59A329342E8
:104ED00004D041F2DA11914803F0C8F96B68B3F5D8
:104EE000004F05D023B1022B02D00A2B40F056818F
:104EF000EB680F2B00F25881EA6869682068FFF7B9
:104F000051F860212068FFF794F8D9E041F28B1145
:104F1000824803F0ABF9AFE7102B08D004D9202B5F
:104F200005D0302B03D0CBE0002B40F0C9802368A4
:104F3000794A934217D0B3F1804F14D0A2F57C4246
:104F4000934210D002F5806293420CD002F5806249
:104F5000934208D002F59A32934204D041F2FD11F7
:104F60006E4803F083F929682068FFF762F8A7E02C
:104F7000B3F5805F41D0B3F5005F40F0A1802368B6
:104F8000654A934213D0B3F1804F10D0A2F57C4212
:104F900093420CD002F58062934208D002F5806201
:104FA000934204D041F2B6115C4803F05FF9AB685C
:104FB0004BB1B3F5805F06D0B3F5005F03D0B3F516
:104FC000405F40F096806B68B3F5004F05D023B189
:104FD000022B02D00A2B40F09280EB680F2B00F2DC
:104FE0009480EB686A68A9682068FFF715FF22685B
:104FF000936843F48043936062E02368464A934297
:105000005ED0B3F1804F5BD0A2F57C42934257D083
:1050100002F58062934253D002F5806293424FD0F2
:1050200002F59A3293424BD002F58062934247D008
:1050300002F58062934243D041F29711374803F062
:1050400015F93DE02368344A934217D0B3F1804FFD
:1050500014D0A2F57C42934210D002F580629342B4
:105060000CD002F58062934208D002F59A32934246
:1050700004D041F29E11294803F0F8F8AB6843B11F
:10508000B3F5805F05D0B3F5005F02D0B3F5405FA4
:105090001DD16B68B3F5004F04D01BB1022B01D0BA
:1050A0000A2B1AD1EB680F2B1DD8EB686A68A96828
:1050B0002068FFF7B1FE2268936843F0770393609E
:1050C000012384F83D30002084F83C0038BD41F2D3
:1050D000A111124803F0CAF8DBE741F2A2110F4810
:1050E00003F0C4F8DEE741F2A3110C4803F0BEF868
:1050F000DBE741F2B911094803F0B8F863E741F280
:10510000BA11064803F0B2F867E741F2BB11034851
:1051100003F0ACF865E700BF0000014064E500085B
:105120002368444A934217D0B3F1804F14D0A2F5BC
:105130007C42934210D002F5806293420CD002F57B
:105140008062934208D002F59A32934204D041F231
:10515000CA11394803F08AF86B68B3F5004F04D0E0
:105160001BB1022B01D00A2B0CD1EB680F2B0FD8EF
:10517000EA6869682068FEF7E8FE50212068FEF7BB
:1051800058FF9DE741F2CD112B4803F06FF8ECE793
:1051900041F2CE11284803F069F8E9E741F2DD1148
:1051A000254803F063F8A3E641F2DE11224803F03C
:1051B0005DF8A1E623681F4A934217D0B3F1804FF0
:1051C00014D0A2F57C42934210D002F58062934243
:1051D0000CD002F58062934208D002F59A329342D5
:1051E00004D041F2EA11144803F040F86B68B3F5BB
:1051F000004F04D01BB1022B01D00A2B0CD1EB685D
:105200000F2B0FD8EA6869682068FEF79EFE4021E0
:105210002068FEF70EFF53E741F2ED11064803F058
:1052200025F8ECE741F2EE11034803F01FF8E9E737
:1052300002204BE70000014064E5000870B5044619
:105240000D4616461F4B98421FD0B0F1804F1CD020
:10525000A3F57C43984218D003F58063984214D09C
:1052600003F58063984210D003F59A3398420CD02E
:1052700003F58063984208D003F58063984204D018
:1052800041F6CC11104802F0F1FF65B1042D0AD0AF
:10529000082D08D00C2D06D03C2D04D041F6CD11A0
:1052A000094802F0E3FF05F01F05012303FA05F2A8
:1052B000236A23EA02032362236A06FA05F51D43E3
:1052C000256270BD0000014064E5000838B5044661
:1052D0000D460368224A93422DD0B3F1804F2AD065
:1052E000A2F57C42934226D002F58062934222D0FE
:1052F00002F5806293421ED01A4A934224D01A4A81
:10530000934226D0194A934226D040F25171184850
:1053100002F0ACFF012229462068FFF78FFF2268C8
:10532000936803F00703062B03D0136843F00103CF
:105330001360002038BD002DECD0042DEAD0082DDC
:10534000E8D00C2DD8D1E5E7002DE3D0042DD6D13F
:10535000E0E7002DDED0D5E7002DDBD0D5E700BF9C
:10536000000001400040014000440140004801406D
:1053700064E5000838B505460C460368334A934295
:1053800027D0B3F1804F24D0A2F57C42934220D0A5
:1053900002F5806293421CD002F58062934218D0DD
:1053A0002B4A93421ED02B4A934220D02A4A934242
:1053B00020D040F28B71294802F058FF0C2C21D8E4
:1053C000DFE804F01B20202031202020372020207F
:1053D0003D00002CF2D0042CF0D0082CEED00C2C88
:1053E000DED1EBE7002CE9D0042CDCD1E6E7002C81
:1053F000E4D0DBE7002CE1D0DBE72A68D36843F098
:105400000203D360012221462868FFF717FF2A68AC
:10541000936803F00703062B03D0136843F00103DE
:105420001360002038BD2A68D36843F00403D360BA
:10543000E8E72A68D36843F00803D360E2E72A6804
:10544000D36843F01003D360DCE700BF00000140E5
:1054500000400140004401400048014064E500086C
:1054600038B504460D460368374A934213D0B3F16A
:10547000804F10D0A2F57C4293420CD002F580629E
:10548000934208D002F58062934204D040F26461F6
:105490002E4802F0EBFE2B686BB1102B0BD0202BAB
:1054A00009D0302B07D0402B05D0502B03D0602BD8
:1054B00001D0702B39D16B68802B01D0002B3AD1F1
:1054C00094F83C30012B3CD0012384F83C3002237B
:1054D00084F83D3023685968986821F070012A6883
:1054E0000A435A602368184A934212D0B3F1804F9E
:1054F0000FD0A2F57C4293420BD002F5806293421A
:1055000007D002F58062934203D002F59A329342AB
:1055100004D120F080006A6810439860012384F869
:105520003D30002084F83C0038BD40F265610748FA
:1055300002F09CFEBFE740F26661044802F096FE6E
:10554000BEE70220F0E700BF000001409CE5000834
:10555000704770470268D36823F49073D360026881
:10556000536923F001035361202380F83A307047D8
:1055700090F83930DBB2212B2AD18368B3F5805FF4
:1055800016D0036A5A1C02621A7803685A60C38CE8
:10559000013B9BB2C384EBB90268D36823F080035C
:1055A000D3600268D36843F04003D36000207047A3
:1055B000036A1B880268C3F30803536003691BB9BD
:1055C000036A02330362E2E7036A01330362DEE740
:1055D00002207047002070472DE9F04B04464268D6
:1055E000984B9A4274D8E36813B1B3F5005F75D154
:1055F00023692BB1B3F5806F02D0B3F5C06F73D1BF
:1056000063694FF6F372134200D123B940F6FE31BD
:105610008D4802F02BFE2268136923F44053E168A1
:105620000B431361A3682269134362691343E26960
:105630001A432168CB6823F4164323F00C03134369
:10564000CB602268536923F44073A1690B43536113
:10565000E369B3F5004F4DD023687C4A934200F0D4
:10566000BD8002F58062934200F0B880FEF726FA12
:105670004FF00009061849EB090716EB000B47EB42
:10568000090C4FEACC0343EA5B734FEACB02934623
:105690009C4663689A009B0F10EB0B0049EB0C01D2
:1056A000FBF74AFB6A4DA5FB00325109642202FB5D
:1056B000110213013233A5FB03235B0903F0F0024F
:1056C00002EB011203F00F03216813448B60B6E074
:1056D00040F6FB315C4802F0C9FD84E740F6FC313E
:1056E000594802F0C3FD83E740F6FD31564802F009
:1056F000BDFD85E72368554A934239D002F58062A3
:10570000934235D0FEF7DAF983464FF0000C0618C5
:105710004CEB0C0716EB000847EB0C094FEAC903EA
:1057200043EA58734FEAC8029046994662680021DE
:10573000921841EB01031BEB08004CEB0901FBF74E
:10574000FBFA434DA5FB00325109642202FB110212
:10575000D3003233A5FB03235B095A0002F4F8722D
:1057600002EB011203F00703216813448B6066E02B
:10577000FEF7B4F980464FF00009061849EB090717
:1057800016EB000B47EB090C4FEACC0343EA5B73C3
:105790004FEACB0293469C4662680021921841EB87
:1057A000010318EB0B0049EB0C01FBF7C5FA284D80
:1057B000A5FB00325109642202FB1102D3003233EF
:1057C000A5FB03235B095A0002F4F87202EB0112F5
:1057D00003F00703216813448B6030E0FEF77EF985
:1057E0004FF00009061849EB090716EB000B47EBD1
:1057F000090C4FEACC0343EA5B734FEACB029346B2
:105800009C4663689A009B0F10EB0B0049EB0C0160
:10581000FBF792FA0E4DA5FB00325109642202FB00
:10582000110213013233A5FB03235B0903F0F002DD
:1058300002EB011203F00F03216813448B60BDE8F3
:10584000F08B00BFA037A000D8E500080010014091
:105850001F85EB512DE9F04105460F461646984647
:10586000069C2B681B6837EA03030CBF0123002347
:10587000B3421DD1B4F1FF3FF3D02CB1FBF726FCAE
:10588000A0EB0800A042ECD92A68D36823F4D073B7
:10589000D3602A68536923F001035361202385F8FC
:1058A000393085F83A30002385F83830032000E09D
:1058B0000020BDE8F0810000002877D010B5044634
:1058C00083690BB303683A4A93420CD0A2F54C4269
:1058D000934208D002F55042934204D040F24B115B
:1058E000344802F0C3FCA369FBB1B3F5807F1CD040
:1058F000B3F5007F19D0B3F5407F16D04FF4A671F1
:105900002C4802F0B3FC10E00368294A93420CD003
:10591000A2F54C42934208D002F55042934204D083
:105920004FF4A871234802F0A1FCA36813B1B3F5AA
:10593000805F29D1E36913B1B3F5004F2AD194F800
:1059400039306BB3242384F839302268D36823F4C8
:105950000053D3602046FFF73FFE2268136923F40B
:10596000904313612268536923F02A03536122682C
:10597000D36843F40053D3600020E063202384F80D
:10598000393084F83A3010BD4FF4A971094802F05B
:105990006DFCCFE740F25311064802F067FCCEE7FA
:1059A00084F83830204602F0CDFDCBE70120704767
:1059B00000100140D8E500082DE9F04383B01E46F1
:1059C00090F83930DBB2202B56D104460D46904674
:1059D000002956D0002A56D090F83830012B54D0E8
:1059E000012380F838304FF00009C0F83C902123A3
:1059F00080F83930FBF76AFB0746A4F82480A4F846
:105A0000268084F8389010E000963B4600228021E2
:105A10002046FFF71FFF002839D12B882268C3F3E7
:105A2000080353602369C3B90235E38C9BB2B3B159
:105A3000E38C013B9BB2E384A368B3F5805FE3D0C2
:105A400000963B46002280212046FFF703FF00BB63
:105A50002A7823685A600135E7E70135E5E70096C3
:105A60003B46002240212046FFF7F4FE034690B952
:105A7000202284F8392000E00223184603B0BDE854
:105A8000F0830123F9E70123F7E70223F5E7032376
:105A9000F3E70323F1E70323EFE72DE9F04383B0B6
:105AA0001E4690F83A30DBB2202B5CD104460D46FE
:105AB000904600295BD0002A5BD090F83830012B4B
:105AC00059D0012380F838304FF00009C0F83C90DD
:105AD000222380F83A30FBF7F9FA0746A4F82C8025
